:040000006F30B02885
:1000040000000000000000003A1A00003C1A000042
:1000140000000000883A000000000000000000001A
:10002400883A0000883A0000000000000000000048
:10003400E016000000000000883A00000000000004
:10004400883A0000883A0000883A0000883A0000A4
:10005400883A0000883A0000883A0000883A000094
:10006400883A0000883A0000883A0000883A000084
:10007400883A0000883A0000883A0000883A000074
:10008400883A0000883A0000883A0000883A000064
:10009400883A0000883A0000883A0000883A000054
:1000A400883A0000883A0000883A0000883A000044
:1000B400883A0000001E0000883A0000883A0000D8
:1000C400883A0000883A0000883A0000883A000024
:1000D400883A0000883A0000883A0000441E000074
:1000E400883A0000883A0000883A0000883A000004
:1000F400883A0000883A0000883A0000883A0000F4
:1001040000000000883A0000883A0000883A0000A5
:10011400883A0000AA190000883A0000883A0000D2
:10012400883A0000883A0000883A0000883A0000C3
:10013400883A0000883A0000883A0000883A0000B3
:10014400883A0000883A0000883A0000883A0000A3
:10015400883A0000883A0000883A0000883A000093
:10016400883A0000F81E0000883A0000883A00002F
:10017400883A0000883A0000883A0000883A000073
:10018400883A0000883A0000883A0000883A000063
:10019400883A0000883A0000883A0000883A000053
:1001A400000000000000000000000000000000004B
:0C01B4000000000000000000000000003F
:1001C000397101436EC619A0397141536AC866CAB4
:1001D00062CC5ECE19A0397101535AD056D252D496
:1001E0004ED64AD826DA22DC06DE3301614082820E
:1001F00041114AC026C222C406C68282B24D4101C4
:10020000024D924C224CB24B4101024B924A224A7F
:10021000B2494101024992442244B24041018280E4
:100220003D432A876373C3029377F700BDEFADE5C3
:10023000937606FF3D8ABA960CC34CC30CC74CC7D5
:100240004107E36BD7FE11E28280B306C3408A0602
:100250009702000096966780A6002307B700A306C2
:10026000B7002306B700A305B7002305B700A30412
:10027000B7002304B700A303B7002303B700A3020A
:10028000B7002302B700A301B7002301B700A30002
:10029000B7002300B700828093F5F50F9396850091
:1002A000D58D93960501D58D61B79396270097025A
:1002B000000096968682E78086FA9680C1171D8F89
:1002C0003E96E374C3F8A5B73367B500FD530D8BB5
:1002D00079E7B7877F7F9387F7F710419441B3722F
:1002E000F6003363F600BE92B3E262006395720CCF
:1002F0006318D6065041D441B372F6003363F6005A
:10030000BE92B3E262006396720A631BD604104584
:100310009445B372F6003363F600BE92B3E2620016
:10032000639F7208631ED6025045D445B372F6002F
:100330003363F600BE92B3E2620063987208631101
:10034000D60210499449B372F6003363F600BE92A8
:10035000B3E26200639172085105D105E30FD6F64E
:100360001317060193970601631CF7001357060144
:1003700093D706013305F7409375F50F91E9828015
:100380004183C1833305F7409375F50F91E1828076
:100390001377F70F93F7F70F3305F740828010219B
:1003A0009421050585056313D60075FA3305D640FB
:1003B000828011059105E314D6FE01458280210556
:1003C000A105E31ED6FC014582803105B105E31885
:1003D000D6FC014582804105C105E312D6FC0145EA
:1003E0008280EFF25FDF41118545314537140140CE
:1003F000EF30D01D8547C1440D494C0013050480E2
:100400007C8226C64AC4EF302071130504808545DE
:10041000EF30007E9307800489494C001305048067
:100420003EC623123101EF30206F4C00130504C08B
:100430002312310126C64AC4EF30006E130504C0F2
:100440008945EF30A07A91474C00130504C07C82A7
:1004500026C6EF30606C930700024C00130504C001
:100460007C82B7B40000EF30206B1385C4A0EF503E
:100470000020130504C09145EF30807793050002FA
:10048000130504C0EF30C0761385C4A0EF50201EC2
:1004900037B50000130505A2EF50601D4101B5B34B
:1004A000EFF21FD537B50000130545A637140140FC
:1004B000EF50E01B8945130504C0EF3060732945F8
:1004C000EF10E01C854513050480EF30607229456C
:1004D000EF10E01B8945130504C0EF3020711305B0
:1004E000800CEF10C01AB7B400001385C4A7EF50FA
:1004F00000188945130504C0EF30A06EAA8537B5F2
:100500000000130505A9EF50C0011385C4A7EF50E3
:10051000001609B3EFF2DFCD85476302F50401CD84
:1005200089476300F5068D47630FF50613054006FE
:10053000EF104018C5B1371401409145130504C0B0
:10054000EF30006B130504C093050002EF30406AE2
:1005500037B50000130585AEEF506011C1BF3714E9
:1005600001409145130504C0EF304068130504C0F5
:1005700093050002EF30C06737B50000130585B062
:10058000E1BF371401409145130504C0EF304066C8
:10059000130504C093050002EF30406537B5000035
:1005A000130585B255BF371401409145130504C0AA
:1005B000EF30C063130504C093050002EF30006301
:1005C00037B50000130585B441BFEFF2DFC02A8ABA
:1005D00091371305A00FB7140140EF10400B13041F
:1005E000501F93890480054989454E85EF30C05ED0
:1005F000630A250737190140E14401449309098042
:1006000085454E85EF30805E0945EF10A00A89458B
:100610004E850604EF30405C19C113641400854513
:100620004E85EF30E05CFD14094593F4F40FEF10B4
:100630006008F9F4854513050980EF30205B094512
:10064000EF104007854513050980EF30605A0945D2
:10065000EF1040069317840063D70704B70700FF25
:100660005D8C91A07D14EF1080023DFC91451385B7
:1006700004C0EF3000572A8493050002138504C09C
:10068000EF3020562A8637B50000A2851305C5AA8B
:10069000EF40306937B5000093051A001305C5AC6B
:1006A000EF403068014422858DB6EFF2FFB137CAC2
:1006B0000000411113054AEA02C002C202C402C688
:1006C000B7A90000EF40B07A13858976EF40307A01
:1006D00037A500001305457CEF40707937A900006D
:1006E0001305497FEF40B07837B500001305058545
:1006F000EF40F07737B5000013050588EF403077FD
:10070000B7B400001385048BEF4070767944114C28
:100710008A8AD68B014B5A854D3D83A70B00050B6A
:10072000910B3E9523AEABFE1305E002EF409063C4
:10073000E3138BFF7D14130540061374F40FEF00D1
:10074000107579F41387018D81471384018D7948E1
:10075000938641820545914503A60A001107910A37
:1007600033460603232EC7FE3386F60008A285070C
:10077000E394B7FE13054AEAEF40706F138589765C
:10078000EF40F06E37B500001305C590EF40306EB6
:100790001305497FEF40B06D0C4037B500001305DD
:1007A000C593EF4010584C4037B50000130505972E
:1007B000EF4030570C4437B500001305459AEF4021
:1007C00050564C4437B500001305859DEF407055D9
:1007D0001385048BEF40B06941011DB4EFF25F9EB9
:1007E00093874182AA979C235971AA842E8991CF1D
:1007F000131425009387018CA29783A90700930502
:1008000000004E85EF40600B19ED37B500004A86B9
:10081000938514001305C5B7EF40B050930900004D
:100820004E856561E1BA9387018DA29703AB0700FE
:10083000B30B2B415E85EF40700CCE85EF40C01EA0
:1008400093050000AA8AEF40601563540500930ADF
:1008500000001387018E2297832C07005685138C86
:10086000018EE685EF40804593050000AA89EF40A0
:10087000E01263560500B7070080B3C93701B7B768
:10088000000083A507B74E8537BA0000EF40A008E7
:10089000634DA014B7B7000083A9C7B6CE855685AF
:1008A000EF408018AA8A03258AB6CE85EF40004122
:1008B000E685EF406017D685EF30701EB3078C00D9
:1008C00088C39387018FA29788C39387018AA297D1
:1008D00023A0270193870190A29723A06701938704
:1008E000018B3E9493870182BE9485479CA0AA8980
:1008F000232074018147138E018F138A018A938A02
:100900000190138B018B138901821147B306F90003
:100910009422E38706F08507E39AE7FEB7B7000065
:1009200003AF47B7B7B7000003AD87B7B74B0F00AA
:10093000096C8144814C0144938B0B24930D400638
:10094000130C0C71B3079E009843FA857ACE3A8552
:100950003ACCEF40600DEF40E06E6247EA852ACA6C
:100960002A943A85EF40400CEF40C06D3347850331
:10097000D247B3059B00B3869A0033069A00850CD4
:1009800091043367B703B34875033AC09841944262
:10099000104237B50000E6851305C5B933E8B70343
:1009A000B3C7B703EF40F037914E724F138E018FEC
:1009B000E39ADCF9B344B40337B50000130505BF6F
:1009C0003364B403A6852286EF40B035B7B5000086
:1009D000A2862686938545C10810EF40104A08106C
:1009E000EF1040682320090025BD83298AB67DB514
:1009F000AA95C2058147C1811317050141836394FC
:100A0000E5003E85828005058346F5FF214733C614
:100A1000D700058A858309C693C7C7F893F7F70FF0
:100A20007D171377F70F85827DF3F9B7EFF24FFC4F
:100A30001307A00A631BE5001305B00BEF00506B12
:100A40000545EF00F06A6FF0EFFC130750056318DF
:100A5000E5001305B00BEF00B0690945DDB71307DA
:100A6000B00BE310E5FEEF00B0680145D9BFEFF22F
:100A70002FF8AA841305A00A32842E89EF0050674C
:100A800026856D371355840055371375F40F793F5C
:100A9000814493970401C18363ED8700A2854A8551
:100AA000813F693713055005EF00906405456FF0ED
:100AB0006FF6B3079900882385048D3FD9BFEFF205
:100AC0008FF19387A1829C23117193F7F70F638AAB
:100AD000070E83D5C1821389A182FD150547814682
:100AE00081479384C1821308E00F138501A1930805
:100AF000B00B0543094E930EB0FB130F5005930F37
:100B0000A0FA6359B70A6371F8048080188122043F
:100B1000598C9309340063D2F90AA2851305310078
:100B2000C13D1C02BE9983C709F06398A7081880CD
:100B300022869305310013850191A385E182EF4060
:100B4000301323948182A5A83306E5001022B1C694
:100B500063106602100293861700B2972380F7F1A4
:100B600093970601C183814605074207418351BF20
:100B70006319C601100293861700B2972380E7F12C
:100B8000C5B7814675F2000213861700A29723802D
:100B9000D7F193170601C183C1BF630B1601000291
:100BA00093821700A2972380C7F093970201E5B7BD
:100BB00085465DBF0D47E36AF7F4230009002390E3
:100BC000040011616FF06FE4EFF2EFE09384A18213
:100BD0009C2093F7F70F8DCB1384818283590400F7
:100BE00003C7B182AE87328918A14E8693850191E1
:100BF0003E85EF40F00705452310390123800400AE
:100C0000231004006FF06FE00145EDBF83D6C18271
:100C10009387C18291E61307A00A6307E5008280EB
:100C20001307F01F6369D700138716009AA3138771
:100C300001A1369708A3130750056319E5009A230D
:100C4000954763F5E70005472385E1828280EFF24F
:100C50002FDA716513050520EF00903F6FF08FDBF1
:100C6000EFF20FD95D712E84B284AA85114608086F
:100C700036C63AC4EF40C07F93578401230AF1007F
:100C800093570401A30AF1009317840042044180A2
:100C900021805D8CA68531462808E083EF40407DA9
:100CA0002247B246B7B5000093578701A302F1026D
:100CB000935707012303F102114693578700938549
:100CC00045C4130591022302D102A303F1022304B8
:100CD000E102EF40E0790C0875464145A3060102A8
:100CE000793361616FF00FD3EFF28FD039712A84BD
:100CF000AA8511460A85EF40A0775E2093058400FF
:100D0000314613978700A1835D8F5C40788313057C
:100D1000210193D68701C183DC827E2854821397F8
:100D20008700A183D98F7C841E2C13978700A18311
:100D30005D8F1C4C788693D68701C183DC855E2C41
:100D4000548513978700A1835D8F5C4CF88093D600
:100D50008701C1835487DC87EF40807193050402CB
:100D60001306C0031305E101EF4080708A85130666
:100D7000A0054545ED3921616FF0CFC9EFF24FC7AE
:100D80000111AE843284AA8511460A85EF40406E77
:100D900093D784015C8293D70401DC82939784000B
:100DA000C204C180A180DD8C935784015C84935779
:100DB0000401DC84931784004204418021805D8C0F
:100DC0008A853146494564836085553105616FF0F8
:100DD0006FC4EFF2EFC1B7777368411193874796FD
:100DE0003EC083C7E1828A851946B337F000494582
:100DF000DC8523020100A53941016FF0AFC1EFF29C
:100E00008FBD3C313821143110214111B7B500009C
:100E1000938505C34800EF405006814903C9E1822C
:100E2000130B4003938AE182938401C113F4F90FF9
:100E300063642401814935A0338569034C004E8ADF
:100E400085092695EFF04FC875F1330A6A037D19BD
:100E5000269A83290A01130A400363482401238048
:100E60002A014E8541016FF04FBA33054403050452
:100E700013064003B305440326951374F40FA69597
:100E8000EF40005FD9BFEFF20FB56D71138401C160
:100E900037B900001306E1000C081305D1002D330B
:100EA00001E551616FF06FB6988693070002E31376
:100EB000F7FE938AE18283C90A009D47E3EC37FD80
:100EC00013054003B389A902834731010347210178
:100ED0008346110103460101930509C3330A340116
:100EE0005285EF40807983474101034751011385C3
:100EF0004901E2074207D98F034771011306000237
:100F00006C08D98F0347610122952207D98F2326C8
:100F1000FA0003479101834781014207E207D98F15
:100F20000347B101D98F0347A1012207D98F232895
:100F3000FA00EF40E05383C70A00A3090A028507BD
:100F40002380FA0081BFEFF2AFAA2A8489453735A2
:100F50000140EF2070717DD9A28537350140EF2027
:100F60003070854537350140EF2010707DD9373519
:100F70000140EF20306F1375F50F6FF0AFA9EFF25E
:100F80002FA7B7140140C1452A8413850480EF20A0
:100F90003046131514001375E5071365050865370A
:100FA000014555372A84C14513850480EF2010443C
:100FB00022856FF02FA6EFF2AFA3B71401402A8469
:100FC0002E8913850480C145EF209042131514002B
:100FD0001375E5078D3F4A85BD37C14513850480EC
:100FE000EF20D0406FF00FA3EFF28FA00565011145
:100FF0008545310502C002C202C402C602C802CA47
:1010000002CC231E0100EF20705C9307000E371402
:1010100001407C80E1473EC48A858D4713050480EA
:101020003EC2EF20702FC147C1448A85130504805A
:101030007C8026C4EF20502E13050480C145EF208C
:10104000F03A85478A85130504C07C8026C4EF20CA
:10105000B02C130504C08545EF205039B7070401B3
:101060003EC6B70700023ECA6C00930780033735BF
:1010700001403ECC02C8EF2030598545373501404C
:10108000EF20705C9305D00849453537930530084B
:101090005145153705616FF0EF97EFF26F954111EC
:1010A0002A842EC6E93DB245C98D93F5F50F2285F8
:1010B000193741016FF00F96EFF28F9341112A8497
:1010C0002EC6753DB24593C5F5FFE98D93F5F50F35
:1010D0002285D53541016FF0EF93EFF26F915145C5
:1010E000793D0D8901E58D455145453F6FF08F9262
:1010F000EFF20F90371401408545130504C0EF202F
:10110000302F1545EF30C00F8545130504C0EF2083
:10111000F02D2945EF30C00EBD450545693D15450B
:10112000EF30000E130430030545913D418919C18C
:101130007D143DE09305D0081305A002AD3D930555
:10114000E0031305B002853DE9451305D002A5353E
:1011500081451305C0028535930500045545A13D21
:101160009305D0034545813D1545EF306009930552
:101170000008294589359305F00711452D3D930554
:10118000F00715450D3D1545EF308007B93715457A
:10119000EF3000076FF00F880545EF30600669B744
:1011A000930710046316F506EFF28F84A1452145DD
:1011B00021379305D0034545FD3B930560085D4508
:1011C000DD3B9305F00713056002F5339305D00866
:1011D0001305A002CD339305E0031305B002E13BF4
:1011E0009305800E1305D002F9338D451305C00217
:1011F000D9339305D0081305A002753B9305E0038E
:101200001305B0024D3B51457521C13D6FF08F80F4
:101210008280EFE27FFBB147AA89AE8B328B3689A1
:101220003A8A630EF50CB9476300F50E814A014412
:101230009365040809454133930500081145AD3D08
:10124000814505458D3B930500082945B935814405
:1012500063EF640BCE850545B93BB1476396F90052
:10126000930500083545153D85649384843893EAD9
:101270001A0011452933FD142A8B81C4B377550117
:10128000EDDB930500083545053DC9C81945C5394D
:101290006D8949E5337464010588930A600219C0B9
:1012A000930AC0FCB1476392F9042945C939AA845D
:1012B0003145F1311D899397340009C59387F4FFB7
:1012C0008E07AA972320FA00054499C4C94713F44E
:1012D000F40F63F397004944814425454D31B3072A
:1012E000990088A38504E3EA84FE9305000831454C
:1012F0006D3381450545C13156856FE07FF0930A16
:101300000003130470072DB7C14A494415B7B387CA
:101310009B008C232545850479391DBF930AB0FBBA
:10132000E9B7EFE2FFEC0111AA842E842145A14523
:1013300061339D453545EFF01FC88D455145B13BA3
:10134000740038000546B68531454486D935930783
:101350006002631DF5002247C1476319F7001C8630
:101360001CA09C861CB005616FE0DFEA1305B0FB92
:10137000DDBFEFE2FFE7011193050008AA842945CC
:10138000293B81450545EFF01FC329452526A14589
:1013900021451D3381453545EFF0FFC19305000818
:1013A0003945EFF07FD1740089679387370938009A
:1013B0000946B68531457C86A93D930760026319CD
:1013C000F5022247930780026314F7022A848147BB
:1013D000014711467400BE969422B385F400850738
:1013E00094A1358FE398C7FE834701016384E7002A
:1013F0001304B0FB930500083945EFF01FCA22859E
:1014000005616FE03FE1EFE2BFDE2A84AE8415455F
:1014100091453289EFF05FCA81450545EFF0BFB9CC
:10142000930500082945EFF05FC7A294631F94025B
:101430008D450545EFF03FB81304F00F7D141545B9
:101440001374F40FEFF0BFB319C0118965D91305F8
:101450002002EFF0DFB22300A90013051002EFF025
:101460001FB2A300A9006FE0FFDA0C202545050498
:10147000EFF07FB465BFEFE2BFD741112A84930537
:1014800000082945EFF07FC151452D249D679387C2
:1014900037097C821C20014791465C831C30DC8329
:1014A0003C205C843C30DC8481473306F40010220D
:1014B0008507318FE39BD7FE1306B1009D45480099
:1014C0005885913754000A872546B6853145EFF097
:1014D0005FD4930760026310F5028247614763910E
:1014E000E7021C82214793F6F70E6388E600130794
:1014F00000026384E7001305B0FB41016FE09FD158
:1015000013070009FDB7EFE2BFCE01117C0036885A
:101510004886CC860147BE85BE861945B308E600DD
:1015200083C8080005078505A3801501E318A7FEF9
:1015300001471946B305E8008C2105078507ECB380
:10154000E31AC7FE38003146B6853945EFF07FCC47
:10155000930760022A846317F5002145EFF03FA24C
:10156000218919E11304B0FB228505616FE09FCA50
:10157000EFE21FC80111930700FAC8861306E100C5
:1015800068002E8489455C86BD3D74003800114694
:10159000B6853145EFF0FFC793076002631EF5047F
:1015A00022479147631AF7041C862947BD8B639530
:1015B000E704814741473306F40010227400BE96C9
:1015C00090A28507E399E7FE7008C1456800253DB4
:1015D000740038004946B6853145EFF09FC3930744
:1015E0006002631BF500224791476317F7001C86D2
:1015F0002947BD8B6384E7001305B0FB05616FE0ED
:101600007FC1EFE2FFBE011193070003C8861306F6
:10161000E10068002E8489455C86F533740038004B
:101620001146B6853145EFF0DFBE930760026315C2
:10163000F5022247930700096310F70281474147EB
:1016400070003E961022B306F400850790A2E3993D
:10165000E7FE05616FE01FBC1305B0FBDDBFEFE2E5
:101660003FB90111930700051306E10068008945A1
:101670007C86EFF05FD9740038001146B68531459D
:10168000EFF03FB91305600205616FE0BFB803A733
:10169000C1808567938707FA3357F70281476399BB
:1016A000A700828001008506E39EE6FE8507C5BF90
:1016B0008146DDBF83A7C18037470F00130707248A
:1016C000B3D7E7023385A70211E10545FD577D1524
:1016D0006313F50082800100DDBF03A501838280D2
:1016E000B7F700E023A2070093870183984305071B
:1016F00098C373002030EFE2BFAF0111AA842E849B
:1017000009458545EF20606EE082370400404C08B3
:1017100013050440E484231D0100231B0100EF2076
:1017200040750546854513050440EF20F0048547C4
:101730001307D01268003EC878865C87EF20E04B24
:10174000854513050440EF20B00105616FE09FACB3
:10175000EFE21FAA411185451145EF20206793074D
:101760000020371401407C82E1473EC64C008D4783
:10177000130504803EC4EF20203A930700407C828A
:101780004C009147130504803EC6EF20E03841012C
:101790006FE05FA8EFE2DFA541112A84854511655E
:1017A000EF20C06222C037440140B70708008A8595
:1017B000130504803EC402C223160100EF20207FDF
:1017C000854513050480EF20900741016FE09FA439
:1017D000EFE21FA201112A84854537050800EF209A
:1017E000C06085454145EF20605E930700407C82E4
:1017F000E1473EC64C008D47371501403EC4EF20FF
:10180000A0318567938707807C824C00914737150C
:1018100001403EC6EF20403022C837540040B70791
:101820000C000C08130504C03ECC02CA231E0100A4
:10183000EF20E0778545130504C0EF20500037B551
:1018400000001305C5C4EF30906205616FE09F9CF6
:10185000EFE21F9A7971AA8485451305001002CA28
:1018600002CC02CE02D002D202D402D602C602C8F4
:10187000EF20A05785454145EF20405593070002D2
:101880000544FC824C0891473715014022CC3ECEDE
:10189000EF208028C147FC824C08E1473715014002
:1018A00022CC3ECEEF204027B7070C000C10372586
:1018B00000403ED426D002D223160102EF20206F32
:1018C00005469305505237250040EF20A078930736
:1018D000900568007C8622C823070100EF20E031D4
:1018E000854537250040EF20807545616FE09F9268
:1018F000EFE21F902A849305000837250040EF206F
:10190000C07975D9A28537250040EF2000786FE0B7
:101910007F90EFE2FF8D7971AA848545370510002D
:1019200002CA02CC02CE02D002D202D402D602C631
:1019300002C8EF20804B854513050002EF200049C7
:101940009147371501400544FC824C089147130527
:10195000054022CC3ECEEF20201CB70704000C101F
:10196000375500403ED426D002D223160102EF2084
:10197000006405469305505237550040EF20806DB6
:101980009307500468007C8622C823070100EF20DB
:10199000C026854537550040EF20606A238A0182C2
:1019A000239B018245616FE0FF86930550523755B6
:1019B0000040EF20206F1DCD37550040EF20606DB7
:1019C000138781831E239306E01F63E1F6021E2323
:1019D0001375F50F93960701C18293871600C2070E
:1019E000C1831EA3938701DBB69788A3EFF0FFCED8
:1019F00023AEA18273002030EFE28FFF3754004006
:101A0000AA84130904C0930500084A85EF20E06802
:101A10007DD9A685130504C0EF2020676FE08FFFF6
:101A2000EFE20FFD2A840305040019E16FE08FFE49
:101A30001375F50FD1370504FDB701A0B707EFBE49
:101A400037E700E0938707083CC701A0EFE2AFF853
:101A5000597132892E86B7C500002A84938585A6E0
:101A60006800B689EF3070416C002285EF30F04895
:101A700079C59305A003EF30B044AA84014585C819
:101A80008504930600022547838704006384D702F8
:101A90006382E702130720026390E702850493053F
:101AA00020022685EF30D041AA870145B9E765615C
:101AB0006FE0AFF58504C9BF13F7F7FD9306B005D6
:101AC000A6876301D7021306C0029306D0050387D9
:101AD000070005C76303C7021377F7FD630FD7003D
:101AE0008507F5B79387140005471306B0059305DE
:101AF000D00583860700A9C20DE7858F13940701DF
:101B00004180636634011384F9FF420441802286D8
:101B1000A6854A85EF30D0154A9423000400054578
:101B200079B793F6F6FD6395C60005078507D1B72B
:101B3000E39EB6FE7D17DDBF014535FB7DBF014548
:101B4000BDB7EFE24FE9138401FBB7B4000093097E
:101B500004142689938544D52285EF30F037130588
:101B60004401938544D5EF303037930700003CC4DF
:101B70002306040413040405E31E34FD9387C127E0
:101B8000138707039306000094C32382070023A44E
:101B90000700B107E398E7FE1384010F93040415CF
:101BA000930549D52285EF30303313054401930561
:101BB00049D5EF307032930700003CC47CC4230841
:101BC0000404A308040413044405E31B94FC6FE01D
:101BD000CFE3EFE24FE07171B7B50000D14650009E
:101BE0009385C5E4AA89EFF07FE609E501454D61DB
:101BF0006FE0AFE1B7B5000093062003300893858E
:101C000085E54E85EFF09FE475D1B7B5000093856B
:101C100005E64800EFE04FEBAA8415C9B7B5000010
:101C20009385C5E64800EFE02FEA49CDB7B500003F
:101C3000938585E74800EFE02FE959C5B7B5000067
:101C4000938545E84800EFE02FE84DF18D441304FB
:101C5000000533898402138401FB2C081305490114
:101C60002295EF3070274A9485474C002306F404F0
:101C70002285EF307026B7B5000093064006F000CD
:101C8000938545E94E85EFF07FDC19C5E800EF301C
:101C9000807BEF30C05D28C4138481850C4037B54C
:101CA0000000130505EAEF30D007184037B50000F3
:101CB0003008A685130585EC23AAE184EF30700671
:101CC000054535B7854461B7894451B7EFE24FD236
:101CD0009384C1889C2093F7F70FA1CB37B5000000
:101CE0001305C52BEFF0DFD337140020130544F89C
:101CF000EFF01FD337C500001305C582EFF05FD2A8
:101D0000130544F8EFF0FFEC2397018823800400CB
:101D1000A38F0184130444F8814733878700850724
:101D200023000700138707806DFB6FE0AFCEEFE263
:101D30008FCAB1672A89938907A70144938407A7AB
:101D4000694A83A509004A85EFE00FD801E90E042E
:101D50002694032944004A856FE02FCB0504A1098E
:101D6000E31144FFCDBFEFE22FC6B7B7000083AA4F
:101D700007C92A840149FD548149114A9317290052
:101D8000A2978843D685EF20103963440500850962
:101D9000CA840509E31449FF85476391F906B7B77B
:101DA000000083AB47C90149130A0000114B638D42
:101DB000240393192900A29983AA0900DE85568578
:101DC000EF20D03D63520502930500005685EF20B9
:101DD0009034635BA0005285D685EF20404C93077A
:101DE00000002A8A23A0F9000509E31269FD8A048C
:101DF00026940840D285EF20804A08C06FE04FC08B
:101E000037050040854513050540EF20001815C132
:101E10009386818593870184904298430506050740
:101E200090C298C3854663F6E60023A0070023838B
:101E3000D18037050040854513050540EF20601629
:101E400073002030411122C6375400409305505290
:101E50001305048026C4EF20E02451C91305048033
:101E6000EF2020231375F50F9307B0071384E18843
:101E70009384F1856316F5002310040085479CA028
:101E80009C2093F7F70F85C71E201307E07F636040
:101E9000F7021E20C207C183138717004207418340
:101EA0001AA037170020130747F8BA9788A3A94745
:101EB0006316F5029C2093F7F70F8DC31A20371590
:101EC0000020930745F8BA97130545F823800700CB
:101ED00023800400EFF0FFCF231004001E2013071F
:101EE000E07F6376F700231004002380040032446F
:101EF000A244410173002030930550523725004021
:101F0000EF20401A09C937250040EF2080181375CB
:101F1000F50FEFE0BFCF73002030EFE26FAD7971C6
:101F2000854537050400EF10506C85452145EF10BD
:101F3000F06993070040FC8237140140E1473ECE30
:101F40004C088D47130504C03ECCEF10F03C85676C
:101F500093870780FC824C089147130504C03ECE4E
:101F6000EF10903BF16737540040938707203ED035
:101F70000C10B7070C00130504803ED402D22316C0
:101F80000102EF20C002054693055052130504805C
:101F9000EF20400C930770137C8685475C876800B0
:101FA00085473EC8EF107045854513050480EF2036
:101FB000000937C500001305459DEF30406B4561B2
:101FC0006FE04FA5EFE2CFA237C50000130505DD96
:101FD000EF30E06937B400001305840BEF3020695F
:101FE00037B500001305C5EDEF30606883A5C180EB
:101FF000B7470F0093870724B3D5F50237B5000024
:10200000130545F2EF30E0511305840BEF302066E5
:1020100037B50000130505F6EF30606537B50000F1
:10202000130505FAEF30A06437B50000130505FE6F
:10203000EF30E06337B5000013050502EF30206391
:1020400037B5000013050506EF3060621305840BF9
:10205000EF30E06137C50000130545EAEF3020613D
:102060006FE04F9BEFE2CF98B74401402A849384FE
:1020700004808307040099E36FE0CF99930500087B
:102080002685EF2080017DD905048345F4FF268550
:10209000EF10B07FF9BFEFE2AF920111A9654146A1
:1020A000938585750808EF30A03C83CC8180B7B755
:1020B000000083A7C7C8B70A0020138401FB81442E
:1020C000814B93890A00930D0102130A20021389A0
:1020D000C1273EC4114D8347C40491CB130B440167
:1020E00013860A00814693F7F60F63EB9701850488
:1020F00013040405E391A4FF5E8505616FE00F9072
:10210000B2855A85368C32C6EFE00F9C3246930674
:102110001C001306260261F914088C425A8536C643
:10212000EFE08F9A1DC9B2469106E398B6FFB1471A
:10213000338BF402B3074C034A9BCE978A33EF20CC
:10214000F07B83250B00EF20300EA245EF20C04B23
:10215000EF207075AA9BC20B09A8B3074C03CE975A
:102160008A333387AB00931B070193DB0B0141B725
:1021700083C7D18793F7F70F6399073483C7C18764
:1021800093F7F70F63930734EFE28F8393877180A0
:102190009823397119C323800700938601FB1386A6
:1021A00001FB81470147138401FB91450345C604A8
:1021B00009C9840013851700A697238EE7FC93773F
:1021C000F50F050713060605E312B7FE0147114692
:1021D00083C5C60489E9880093851700AA97238ED2
:1021E000E7FC93F7F50F050793860605E312C7FE94
:1021F0000149B7CA0000130B000537CA0000914916
:102200007C08CA971306290093858A8C08108423BA
:10221000EF30A0460810EFF0BF8033856403B307AA
:10222000A40083C7C70499C751052295EFF03FB0BA
:10223000EFF00FFF13058A8DEFF08FFE1305F00FFF
:10224000EFF08FFB1305F00FEFF00FFB1305F00F0E
:10225000EFF08FFA130520030509EF10707AE311F0
:1022600039FBB7B7000003AB07B7814493090005FA
:1022700037CA00001389C127B14AB7CB00007C08D8
:10228000A6979C231386240133873703229703479D
:10229000C7045DCFB3875703DA8532C4CA9703AC4E
:1022A00007006285EF204078EF20D0592947336737
:1022B000E50262853AC2EF20F05812472246AA860C
:1022C0009385CB8D0810EF30403B0810EFF04FF5B1
:1022D0001305F00FEFF04FF21305F00FEFF0CFF111
:1022E0001305F00FEFF04FF17945EF107071850491
:1022F0009147E396F4F8B70900200149930A0005D5
:1023000037CB0000138C0900930C2002130A4006FF
:1023100037CD00007C08CA97882333055503B307DF
:10232000A40083C7C70489CF03C681805105B304C5
:10233000A40013870900814793F6F70F63E0C602F4
:102340001306A9009305CB910810EF300033B1A01C
:1023500093054A8F0810EF30403285BFBA85268535
:1023600032C6BE8D3EC43AC2EFD01FF6A247124716
:10237000324685071307270261F1B38D9D031306CB
:10238000A90093054D900810E29D83D60D0233F706
:102390004603B3D64603EF30402E0810EFF04FE867
:1023A0001305F00FEFF04FE51305F00FEFF0CFE45A
:1023B0001305F00FEFF04FE47945EF107064050955
:1023C0009147E319F9F4A965414693858575081885
:1023D000EF30000A014937CA0000930A0005B7CB65
:1023E0000000130C0104B7CC0000B7C90000114B6A
:1023F0007C08CA971305CA928423EFF06FE2130595
:1024000069031375F50FEFF02FDF33855403B3071E
:10241000A40083C7C70495C35105B304A400130DDA
:10242000010383250D002685EFD01FEA41CD110D54
:10243000E319ACFF1385499619A013854B93EFF070
:102440002FDE1305F00FEFF02FDB1305F00FEFF089
:10245000AFDA1305F00FEFF02FDA79450509EF1029
:10246000305AE31769F9EFF01FC32A8619C1239E7A
:10247000A18437C500001305059432C2EFF04FDA8E
:102480001246B7C50000938505950810EF30E01E91
:102490000810EFF0EFD81305F00FEFF0EFD51305AC
:1024A000F00FEFF06FD51305F00FEFF0EFD4130539
:1024B0002003EF10F05413054006EF107054216113
:1024C0006FD0DFD313854C959DBF8280EFD2DFCFD5
:1024D000370400209304040037CA00001971938464
:1024E0004415014913040400B7CC0000B7CB000029
:1024F000194BD28A2685EFF09F83930919004E86E7
:1025000093854C972A8C2800EF3020172800EFF095
:102510002FD16285EFF0CFD013058A98EFF04FD01E
:1025200096304A8693850B992800EF3000152800D5
:10253000EFF00FCF938424024E89E39D69FB1304CF
:1025400004228144B7CB000037CA00009949228594
:10255000EFF0EFFD138914004A8693858B9A2A8B3E
:102560002800EF3080112800EFF08FCB5A85EFF074
:102570002FCB13858A98EFF0AFCA163026869305C5
:10258000CA9B2800EF30600F2800EFF06FC91304DA
:102590002402CA84E31D39FB09616FD07FC6EFD2E4
:1025A000BFC2B70400201971938404000144B7C965
:1025B000000037CA0000B7CA0000294B03C781805A
:1025C0009377F40F63F5E7042685EFF04FF60504E3
:1025D000228693858989AA8B2800EF30000A28007B
:1025E000EFF00FC45E85EFF0AFC313058A98EFF0EC
:1025F0002FC3963022869385CA8A2800EF30E007E1
:102600002800EFF0EFC193842402E31964FB096111
:102610006FD01FBFEFD23FBCAA8437B50000357121
:10262000130585D22E84EFF0AFBFBC30B8209430B4
:102630009020B7B50000938585D50810EF30E003F2
:102640000810EFF0EFBD9544130960022C0013054C
:102650002005EFE01FCD630A251313054006FD1486
:10266000EF10103AE5F437B50000130585E229A014
:1026700037B500001305C5D7EFF08FBA65A0B709CD
:1026800000208D44130A60024E8974001386894D20
:10269000D14513050006EFE01FE763084509130560
:1026A0002003FD14EF10D035EDF037B50000130511
:1026B000C5DED9B737B50000130545DB91A8130572
:1026C00020037D14EF10D03331C474001306894DFC
:1026D000C14513050006EFE01FE3E31295FE856791
:1026E00002C8938777020C08414502CA02CC02CE89
:1026F000FC81EFE0FFE7E31F95FA0966B7B500003C
:1027000013060671938545D90810EF20107708103D
:10271000EFF00FB137B500001305C5DCEFF04FB097
:10272000EFE0FFF30D616FD05FAE1E2031469305E1
:10273000440013978700A1835D8F1C404808F881EF
:1027400093D68701C1832308D100A308F100EF20AD
:1027500030520C085145EFE0BFE139468145130581
:102760002101EFD0FFAB1C280C0855452308F100D0
:102770003E28930460020D4413D78700A308E100AC
:102780002309F100EFE0DFDE89B76800EFE07FBEEC
:10279000E31025EF9544130960026800EFE0BFCD18
:1027A000E30F25ED13052003FD14EF107025F5F45C
:1027B00037B50000130505E1C1B5EFD2DFA10A0569
:1027C00041112E8AB2841374F50F0D49B70A002007
:1027D00093096002D28613868A4DA28513050006EE
:1027E000EFE07FD2630835097D1951451379F90F60
:1027F000EF101021E31009FE37C50000130585878F
:1028000061A01C809880E2074207D98F9881D98FF8
:1028100018812207D98F91E737C50000130505837A
:10282000A5A04C009CC0314613854400EF205044C5
:1028300013051400A38704008A851375F50FEFE0D4
:102840005FDC6307350137C50000130585852DA8BA
:102850001C80188115469CA89C8093053100138527
:102860004401A207D98FBEA8EF2090400545410141
:102870006FD0BF998A852285EFE0BFD8E30335F991
:1028800037C5000013058581EFF08F990145C5B765
:10289000EFD21F962A8437B500003971130545CB56
:1028A000EFF00F981040B7B500009385C5CD0A85AD
:1028B000EF20B05C0A85EFF0AF96B7B500001306C5
:1028C00044009385C5CE0A85EF20305B0A85EFF082
:1028D0002F95182885476304F70437B600001306C0
:1028E00046CAB7B500009385C5CF0A85EF20F058DA
:1028F0000A85EFF0EF923228B7B50000938505D135
:102900000A85EF2090570A85EFF08F9137B50000C8
:102910001305853FEFF0CF9021616FD0BF8F37B6A1
:102920000000130686C975BFEFD29F8C41112E841B
:102930008A85EFE01FCD930760026311F5021C80CA
:1029400098800545E2074207D98F9881D98F188171
:102950002207D98F1CC041016FD0DF8B0145E5BF35
:10296000EFD21F895D7193D78501139705015C80B4
:10297000418393D70501DC80218393978500D98F0C
:102980002E848A857C8102C202C402C6EFE05FBE4B
:10299000930760026316F50213064006B376C4027D
:1029A000B7C50000938505A208083356C402EF207E
:1029B000D04C0808EFF0CF86054561616FD09F8548
:1029C00037C500001305C5A4EFF08F850145F5B7A5
:1029D000EFD27F806D71EF10207F01E50545EF108C
:1029E00060779387418705476C001305200598A3FE
:1029F000EFE03F93930760022A8493894187630243
:102A0000F50493844188984023A0018623A2018481
:102A100085476315F702138481881C401307200340
:102A200085071CC0635CF70037B500001305C52C93
:102A3000EFE01FFF23A004002320040051616FD0AA
:102A4000CFFC0808EFE0FF92E31A85FE9384C1866D
:102A500011469385C1860808EF20501F83A7418443
:102A6000138441845D8D79D9C24703472101834690
:102A700011019CC00346010183473101B7B5000035
:102A80009385052F0809EF20503F0809EFE05FF913
:102A90008144130A6002B7BA00000D490808EFE04C
:102AA0009F9D6318450F37B50000938A4188130531
:102AB000C531EFE0FFF603A90A00854793844188FA
:102AC0006300F9100149B7BA00000D4A30080C083C
:102AD0001545EFF09FCE6312054005094A869385A0
:102AE0008A580809EF2070390809EFE07FF31305D1
:102AF0002003EF10E070E31B49FD138401861C40A6
:102B0000A9EB37B500001305855AEFE07FF1B797C1
:102B10000D00B7B50000938787039385C55D28181E
:102B20003EDAEF20703B85472302F1040808930743
:102B300040064C182313F10482C423060104EFF06D
:102B40007FAD854737B500001CC01305855EEFE0FB
:102B50003FED0547238EE18603A7818537B5000049
:102B60001305C5C223A6E184EFE09FEB37B5000053
:102B700013050562EFE0DFEA1305F00FEFE0DFE792
:102B80001305F00FEFE05FE71305F00FEFE0DFE66E
:102B90000DA68504268693858A330809EF20F02D3B
:102BA0000809EFE0FFE713052003EF106065E397E6
:102BB00024EF37B50000130505E1EFE07FE6BDBD6A
:102BC00030080C08154523202401EFF01FBF01ED4C
:102BD00037B5000013058535EFE09FE423A00A0018
:102BE00023200400EDA803468102631C261137B59B
:102BF00000001305C537EFE0BFE237B5000013054D
:102C0000C53AEFE0FFE13706002014081306864DB1
:102C1000C14513050006EFE01F8F631F450D4C18DB
:102C20004145EFF07FD06304050C5256B7B5000064
:102C30009385853D0809EF2050240809EFE05FDE09
:102C40008965938505714145EFF09FD141CD37B539
:102C500000001305053FEFE0BFDC37B500001305AA
:102C60000542EFE0FFDB8347310103472101834643
:102C7000110103460101B7B5000093850544080919
:102C8000EF20B01F0809EFE0BFD9B7B500008146BB
:102C9000130640069385C5460809EF20101E080953
:102CA000EFE01FD8B7B500008146130640069385B4
:102CB00005490809EF20701C0809EFE07FD637B5F9
:102CC00000001305054BEFE0BFD537B50000130535
:102CD000055723A0040023200400EFE07FD4EFE099
:102CE0001F98A9BB37B500001305C54DE9BF37B51F
:102CF00000001305454FC1BF37B500001305C5508F
:102D0000D9B7B7B50000938545530809EF20F016F1
:102D1000080955BF3706002014081306864DC14523
:102D200013050006EFE02FFE930760026307F5002E
:102D300037B500001305C55019BD4C084145EFF0EB
:102D4000BFBE630705180808EFE06F8B2A8405C92A
:102D5000D245AA9541452ECAEFF09FC0D246B7B5DD
:102D6000000022869385C56B0809EF201011080921
:102D7000EFE01FCB5246A2850808EFE02F80B7B5E1
:102D8000000070089385456E0809EF20100F0809B0
:102D9000EFE01FC983D4C18513094006B7B5000011
:102DA000C204C18033CA24039385056F0809B3EABE
:102DB00024035286D686EF20500C0809EFE05FC648
:102DC0005246B7B500009385C570B376260308094F
:102DD00033562603EF20700A0809EFE07FC45246FD
:102DE000636E960C33049640A2854145EFF05FB7C1
:102DF0006301050CB3762403B7B500009385057312
:102E0000080933562403EF2050070809EFE05FC19B
:102E1000B7B500005687D2867008938545760809B5
:102E2000EF20B0050809EFE0BFBFC24731466C088C
:102E30003EDAE24768183EDCEF2080638347810278
:102E40001306C003A304F104D24793850124C808E4
:102E5000BEC62304010423159104A2C8EF204061DB
:102E60004818EFD07FE837B500001305C5C2EFE082
:102E70003FBB13054006EF10A03837B5000013051F
:102E80000579EFE0FFB90945EF10C02C1305F00FED
:102E9000EFE09FB61305F00FEFE01FB61305F00F3C
:102EA000EFE09FB50547A38EE18603A7818523A0A8
:102EB000E188EFE0CFFA2380090049B6B7B50000FA
:102EC000A6869385457A0809EF20207B080941B141
:102ED00037B500001305C57D9DB9280823A00186DC
:102EE000EFF01F9B83468102E24501477008080806
:102EF000EFD01FD737B500001305857FEFE05FB235
:102F0000034781028947E317F7E037B5000013054F
:102F10000563EFE0FFB037B500001305C565EFE0CE
:102F20003FB037B5000013054569EFE07FAF42477A
:102F300085479CC023A4E18465B1EFD26FA813013B
:102F400001DCEF0050160945EF00D04A7164EF0034
:102F50001021EF108028EFE0AFFF13050420EFE011
:102F60007F8313050420EFE0BF86EFF0AF85EFE02D
:102F70005FBD37C50000130585B6EF20406FEFE059
:102F8000DFF913050420EFE0DF9885451145EF00D8
:102F9000F063894737140140231AF104CC089307E2
:102FA000800413050480BECEEF0010378945130559
:102FB0000480EF00704263110544B7C5000093859B
:102FC000C5B537C500001305C5B8EF208055EFD053
:102FD0001FC837C50000130505BBEF204069B74780
:102FE0004C4C938787541546EC00BEC64945930761
:102FF000F0042318F104EFD09FA737C50000130594
:10300000C5BDEF20C066EFD0CFBDEFD06FC91305AF
:10301000800CEF10E01EB1659385F5B71305703E87
:10302000EFE06FED83A5C18037C500001305C5BF74
:10303000EF20204FB7F700E023A0070023A20700EE
:10304000814694C7014737360200D8C71306F627D2
:1030500090CB8146D4CB1D4798C3EF10E00EEF1004
:10306000201413054006EF10A01937C50000130502
:10307000C5C1EF20C05FEFD03FF71545EF104018F6
:10308000EFE00F871545EF10A01713051004EFE0D0
:103090002F911545EF10C01613057003EFD03FEECA
:1030A000AA852ACC37C500001305C5C3EF206047A9
:1030B0006246B7C50000938585C50801EF20E05B37
:1030C0000801EFE0FF9537C500001305C5C6EF20E6
:1030D000005AEFE08F805145EFD07FEAB7C500007E
:1030E0002A86938545CA8801EF2020598801EFE0A0
:1030F0003F9337C400001305C4CBEFE07F9237C580
:103100000000130585CEEFE0BF911305C4CBEFE0BF
:103110003F9137C50000130585D0EFE07F9037C59C
:103120000000130585D2EF20805437C50000130539
:10313000C5D3EF20C05337C50000130545D6EF2097
:10314000005337C500009545130505D9EF20603DB4
:1031500037C50000130585DAEF20605137C5000040
:10316000130545DDEF20A05037C50000130545E0ED
:10317000EF20E04F37C50000130505E3EF20204F97
:10318000EFD0AFD237C70000032707B437C5000020
:1031900023A0E18C37C70000032747B49387018C35
:1031A000130505E5D8C337C70000032787B498C7C0
:1031B00037C700000327C7B4D8C7EF20404B37C537
:1031C0000000130545E7EF20804A37C500001305CE
:1031D00085EAEF20C04937C50000130545ECEF2014
:1031E000004937C50000130505EFEF20404893075D
:1031F000800873A00780EFF08FBAEFF02FADB7B75C
:10320000000083AA07B7138A11DB83D78183C20723
:10321000C1839DCBEFE06FCC83A7C1831D8DCD47CC
:1032200063F4A70203D78183938701DBBA972380D6
:10323000070083D78183C207C183239BF18285471F
:10324000238AF182239C018283C7418393F7F70F7E
:10325000B5CB238A018203D9618383D5618337C5C6
:1032600000004209130505F213590901EF20602BF4
:10327000014493090010938B01DB37CC000083D706
:1032800061831317040141836374F700631B3417D0
:1032900037C50000130545EAEF20603D014D138757
:1032A00001DB9306B003138401DB93190D0193D95D
:1032B000090163E12917130600208145138501DB0D
:1032C000EFC01FF69387D1879C231389D18793F78B
:1032D000F70F13848185A9C71C4003A70188998F24
:1032E0000547637FF702054523000900EF0090665C
:1032F00037B500001305C5C2EFE08FF237C50000F7
:10330000130505F7EFE0CFF11305F00FEFE0CFEE77
:103310001305F00FEFE04FEE1305F00FEFE0CFEDE8
:103320009387C1879C239384C18793F7F70FB1C319
:103330001C4003A7C184998F0547637CF70237B50A
:1033400000001305C5C223800400EFE06FED37C510
:103350000000130505F7EFE0AFEC1305F00FEFE009
:10336000AFE91305F00FEFE02FE91305F00FEFE0E1
:10337000AFE8EFE0BF95EFD08FF4EFD0DFB09387E9
:10338000418694431840158FA54663F6E600184021
:1033900098C3EFD01FA49387818798439146050770
:1033A0009389418763E5E62498C393870187944313
:1033B0007D5723A007006393E62483C7090093F792
:1033C000F70F6382072483A5018337C50000130527
:1033D000C5F7EF2000151305803EEFE04FAB938754
:1033E0006180942305476384E63237C500001305E6
:1033F000450EEF20C02711BDB7C50000938505B568
:10340000C9B6B30774018C2313058CF30504EF20B0
:103410004011B5B593071D003386E7000346F6FF5C
:103420006304D6003E8D51B5E38709E8014C8D4514
:10343000A94C9307C002931B0C0193DB0B0163F5AE
:10344000350163179C0BA94B93871900939C0701C7
:1034500093DC0C0113871C0063542703330794018A
:1034600014233547639EE60033874C011423294714
:103470006398E60093873900939C070193DC0C0165
:10348000938741DB3ECC938731DB81443ED063F8A8
:103490007415130650059306A00A8DA093841B0093
:1034A00093FBF40FB38D750163D7AD01B306B4017F
:1034B0009422E395F6FE1C0293145C00338597007A
:1034C000A2955E86EF10D07A93950D01C1819C0480
:1034D000B306B400BE949422DE94238004EC9307D8
:1034E000C0026395F6008505C205C181050CA1B730
:1034F000814B4DBF931C070193DC0C0113871C000B
:10350000635C2701B30594018C21E395C5FEB38567
:103510004C018C21E390D5FE13875C006351270D8D
:1035200003CC8180E24793062002B306DC02338796
:10353000FC0082571023B70900203387FC001823B2
:10354000220693876C00598E138709003697939C47
:103550000701139354001C02B16612B393DC0C01F3
:103560003E93938806A70147938D81809389090034
:1035700083A548001A853ADE32DC46DA1AD4EFC059
:10358000BFD4B1672253D25862567257938607A7A9
:10359000694E29E1130520023305AC020E07369768
:1035A0000C4332D44E95EF2020132256930520026F
:1035B000B305BC0237C50000130505F4850493F478
:1035C000F40FCE95EF10F07503C70D0005072380AB
:1035D000ED0075BD0507A108E31CC7F9C1BF37C5DC
:1035E0000000DE85130545F5EF10B073E9B123A0A7
:1035F0000700EFF0EFBD2380090045BBEFE01FEDB2
:10360000EFE0FFF95DBB8347090093F7F70FE39CF9
:1036100007DA9C2093F7F70FE39707DA9387818601
:1036200018409443E301D7DA1840158F8546E3FC30
:10363000E6D8184098C3EFE0BFB313850124138D7B
:1036400001FB1306C0038145EFC09FBD130B0D1492
:103650008144138401FB930B900313890124930984
:10366000B003130CC0028347CD04A9C383074D01E7
:1036700093054D0185CF9387F4FF63E7FB00B30704
:1036800099002380870185042E852ECCEF20C0056C
:10369000B387A400AA8DE24563D4F900B38D9940A5
:1036A000330599006E86EF10B05CEE94130D0D0596
:1036B000E31BABFBB7B40000938544D5130544016D
:1036C000EF208001930700003CC4938544D5230676
:1036D0000404130544063E89EF200000938544D579
:1036E000230E0408232C24091305440BEF10D07E6D
:1036F000938544D52306040E2324240F1305441078
:10370000EF10907D230E0412232C24136DB937C5BE
:103710000000130505F9130901068418238007002A
:10372000A689EF10D0744A8B0144914B2285EFC0DB
:10373000DFE92320AB00AA852285EFD02F8A23A0C2
:10374000A9000504110B9109E31274FF0144854798
:1037500037CB0000914903270900050419E7A2852A
:1037600013058BFBEF10F05B81471109E31534FF64
:10377000E38D07A826851384C127EFE0CFDE9309E8
:10378000040305499C40230224013104232AF4FE4A
:10379000EFD0BFF4232EA4FE9104E31534FF665549
:1037A000238F2185EF10F0212AD456552ED637B419
:1037B0000000EF1010212AD046552ED2EF107020B5
:1037C0002ACC76552ECEEF10D01F2258B258025771
:1037D000F246624692572AC037C500002EC2130532
:1037E00005FEEF10105483C5018537C50000130591
:1037F0008502EF10105337C500001305C505EF1003
:1038000010674655D685EF102022EF10B003B7C5DC
:1038100000002A86938545090802EF101066080209
:10382000EFE00FA02945EFD09FE6832504B756555A
:10383000EF10801FEF101001B7C500002A86938596
:10384000850A0802EF1070630802EFE06F9D2945BA
:10385000EFD0FFE3832504B76655EF10E01CEF10AF
:10386000607EB7C500002A869385C50B0802EF105D
:10387000D0600802EFE0CF9A2945EFD05FE18325C1
:1038800004B77655EF10401AEF10C07BB7C50000A3
:103890002A869385050D0802EF10305E0802EFE0DE
:1038A0002F986FF09F96B71702409843B706FFF026
:1038B0001367170098C3D843758FD8C39843B706CA
:1038C000F7FEFD16758F98C39843B706FCFFFD16EB
:1038D000758F98C3D843B70601FFFD16758FD8C3FF
:1038E0009843B70600ECFD16758F98C33707FF00A5
:1038F00098C723A60702B746024003A706801367AE
:10390000070123A0E680D843B706C1FFFD16D8C340
:10391000D843D8C3D84313670740D8C3D843758F5B
:10392000D8C3D843B7063800558FD8C39843B706D5
:103930000001558F98C3984393166700E3DD06FE98
:10394000D843B7160240719BD8C3D84313672700EA
:10395000D8C32147DC42B18BE39EE7FE8280B716D5
:103960000240D8421146318B9387C1806305C7005E
:1039700021466308C70237177A001307072098C348
:1039800037170240584311839376F700370700201A
:103990001307C72E3697142398433357D70098C37D
:1039A0008280D842D442416649833D8BF18E130612
:1039B000270015CF3D47630FE6024147630FE6023C
:1039C000454781456313E6004146A1E2374702407F
:1039D00003270780418B0DC737177A00130707208D
:1039E0003306C70290C3C9DD9843058349BF8145AB
:1039F0004946E1BF85453546C9BF81453D46F1B7DA
:103A000037173D0013070790E1BF3715024058559F
:103A10009316F700585563DF060411833D8B930618
:103A2000170037177A00130707203357D70298C3B8
:103A30005455A182BD8A8DE295463307D70205838E
:103A400098C337170240585794433D8B050733D727
:103A5000E60298C3984369B705456394A600E54616
:103A6000E9BF3D456396A600D1463387E602C9BF4C
:103A70008906E5BF3D8B9306170037177A001307B9
:103A800007203357D702F1B701A097D1FF1F9381C9
:103A9000E124174100201301E1561795000013059A
:103AA00025E597C5FF1F9385E5551386018263FAC7
:103AB000C5008322050023A0550011059105E3EA06
:103AC000C5FE1385018297E5FF1F938525CC63779B
:103AD000B500232005001105E36DB5FEFD4273908E
:103AE00002BCAD4273904280B762000093828208AC
:103AF0007390023097C2FFFF9382025193E232002B
:103B000073905230EFF03FDA97F2FFFF9382224337
:103B100073901234730020309C4513F7070113F89B
:103B2000F70001C7D8413368E8008E2113F7F50F7D
:103B300039C318418146854E3D4F930F8002930251
:103B40008004214E3396DE00B3F8C50063111603DE
:103B50009398260033131F011343F3FF3377E300D9
:103B6000B318180133E7E800639FF70550C98506CD
:103B7000E39AC6FD18C11307F00F6375B7045441EB
:103B80002146854E3D4F930F800293028004414EA3
:103B9000B398CE0033F715016392E802131726009D
:103BA00001173313EF001343F3FFB376D30033173A
:103BB000E800D98E639DF701232A15010506E31954
:103BC000C6FD54C18280E39457FA10C94DB7E397FC
:103BD00057FE23281501DDB708456D8D3335A0004C
:103BE000828048456D8D3335A00082800CC982806B
:103BF0004CC9828023A8A188828003A701898947B4
:103C000010216311F70214318D4763EDD7003C2179
:103C10009A0637E700E09607D58F93F7F70F3297AC
:103C20002300F74054410547935756003317C70008
:103C300089CA938707048A07B7E600E0B69798C356
:103C4000828093870706B7E600E08A07B69798C395
:103C50000F1000008280371702405C439146B18B01
:103C60006385D700A1466382D706B7177A0093878A
:103C700007201CC1371602405C423707002013079B
:103C8000C72F9183BD8BBA9794231C41B3D7D7001C
:103C90005CC15442A1829D8ABA969422B3D6D700C1
:103CA00014C55442AD829D8A36971823B3D7E700D6
:103CB0005CC5584239839376370013870181369764
:103CC0001823B3D7E7021CC982805C435843C166FE
:103CD000C983758FB7F6FF1F83A6C670BD8B890792
:103CE0001396160163480600C54601466392D70243
:103CF000C94739A88946638FD702BD46638ED7026C
:103D0000C146638ED702C54601466393D700C147BB
:103D10001DEF3747024003270780418B05C7371740
:103D20007A0013070720B307F7021CC121D61C41F4
:103D3000858381B701466DBF0546B547D1BF0146B2
:103D4000BD47F9B737173D0013070790E9BFB7150F
:103D50000240D8559316F700D85563DF0604118347
:103D60003D8B9306170037177A0013070720335748
:103D7000D70218C1D455A182BD8A8DE2954633077A
:103D8000D702058318C137170240585714413D8B9D
:103D9000050733D7E60218C1184171B7854563940A
:103DA000B600E546E9BFBD456396B600D146338708
:103DB000E602C9BF8906E5BF3D8B9306170037179A
:103DC0007A00130707203357D702F1B799C5371781
:103DD00002401C4F5D8D08CF8280B7170240984F7C
:103DE0001345F5FF798D88CF828099C5371702403A
:103DF0005C4F5D8D48CF8280B7170240D84F134586
:103E0000F5FF798DC8CF82801A218D6793870704CB
:103E1000B6217D8F9E21D58FD621D58FF621D58FC6
:103E20009625D58FB625D58FD625D58FF625D58F56
:103E3000D98F1EA15A2DFD779387F77FF98F5EAD3D
:103E40009E291EA982801E2189C593E707041EA111
:103E50008280C207C18393F7F7FBC207C183C5BF46
:103E60004EA582804A2582800A256D8D3335A000BB
:103E7000828037F7FF1F032747701E219146118369
:103E80003D8BC2077117C18363E6E60237370140F5
:103E9000930607C0630ED50013070740630AE500C9
:103EA00037570140930607C06304D500631AE50045
:103EB0000967D98F37370140130707C06302E5044C
:103EC00037070040630EE50213070740630AE50267
:103ED00037170040930607806304D502130707C015
:103EE0006300E5023737014013070740630AE50026
:103EF00037570140930607C06304D5006318E500F7
:103F000093F7F7F8BA21C207C183D98F371700405A
:103F1000630CE500130707406308E50093F7F7CF4C
:103F2000FA21C207C183D98F1EA1DE215EB59E2171
:103F30001EB5B7370140138707C0630EE5009387AE
:103F40000740630AF500B7570140138707C06304B1
:103F5000E5006314F5009C251EB985475EA98280A3
:103F60001E2189C593E717001EA18280C207C18365
:103F7000F99BC207C183CDBF5E2501C6DD8D4EA56D
:103F8000828093C5F5FFFD8DDDBF1E294A25ED8F8B
:103F90004205418189C76D8D3335A000828001457E
:103FA000828093C5F5FFC205C1810EA98280EFC250
:103FB0002FA41629F577FD17F58FF621DA257971EB
:103FC000D58F1EA95625FD779387379FF58FD6216C
:103FD0002A842EC6D58F9625D58FB625D58F5EA57A
:103FE0005E29C207C18393F7F7CFD98F5EA968080E
:103FF000EFF07FC6B747014093870780B245631E45
:10400000F402A2576547B387E7029841930640063A
:104010000A07B3D7E70233D7D702B3F7D70212079D
:10402000920793872703B3D7D702BD8BD98FC207D7
:10403000C1831EA445616FC0EF9D9257E1B791C542
:104040005E250967D98F5EA582805A25F977FD170D
:10405000F98FD5BF13F7F50F85471583B395B700D3
:104060006319F7009307C500984301CED98D8CC31F
:104070008280894693074501E318D7FE930705011F
:10408000E5B793C5F5FFF98DDDB793F5F51F4EA1A3
:1040900082804A211375F51F82800A216D8D333588
:1040A000A000828013F7F50F85461583B397B600FD
:1040B0006311D7025A25F98F1A210145420741831E
:1040C00081CB0545A181B315B5006D8F3335E00077
:1040D000828089466314D7001A29F1BF5A29E1BFAB
:1040E000EFC20F91011185452145EFF03FCE371703
:1040F00002401C4F371501404C0093E707041CCFCA
:10410000930700307C828D473EC4130505C0E1470C
:104110003EC6EFF07FA08967372400409387075899
:104120003EC80C08B7070C00130504803ECC02CA39
:10413000231E0100EFF0BFE7854513050480EFF073
:104140001FF005616FC00F8DEFC28F8AEFF05FF92E
:104150006FC04F8CEFC2CF89B707410041119387E1
:10416000E7573EC44886BD5713454504B724004071
:10417000C8865C870144938404801D493C00A29753
:104180008C232685EFF07FF0930500042685EFF061
:10419000DFF07DD90504E31324FF41016FC08F8751
:1041A000EFC20F85411185454145EFF03FC2914770
:1041B0007C824C0093078004371501403EC6EFF027
:1041C000BF9541016FC00F85EFC28F8291453715B2
:1041D0000140EFF07FA06FC0EF8383A7C180371746
:1041E0007A0013070720B3D7E70293F7F70F238B63
:1041F000F1881307803EB387E702239AF188828013
:10420000B7F700E0D8438146799BD8C303D74189EB
:104210003306A70290CBD4CB98431367070198C30A
:1042200098431367170298C3D843058B75DF9843EB
:10423000799B98C38280EFB21FFAB7440140AE89E0
:104240003289014493840480634524014A856FB018
:10425000DFFB930500042685EFF03FE47DD9B387AB
:1042600089008385070026850504C205C181EFF01A
:10427000DFE1D9BF138741811C43B7160020938625
:1042800086783E95636BD500B786002093860680BE
:1042900063E5A60008C33E858280FD57EDBF41114E
:1042A000370780007D1713D8750126C29354750116
:1042B0003373A70093F4F40FB376B7004AC01378B2
:1042C000F80F1359F50106C622C4FD819A87268589
:1042D0004A86131E3300939E3600B3880441630A56
:1042E000B90E6350100D630408149307F00F638B2D
:1042F000F414B7070004B3EEFE00ED4763C11729BD
:1043000093070002B3871741B397FE00B3D81E018D
:10431000B337F000B3E7F800B307FE401397570038
:10432000635E0718370400047D147D8C2285EF102E
:10433000A00A6D15B317A4006348951A058D1304E0
:10434000150013070002018F3397E7003337E000B1
:10435000B3D78700D98F814413F7770019C713F7B4
:10436000F70091466303D700910713975700635BEB
:10437000071485041307F00F4A866383E4169A072F
:10438000A58313F5F40FB2402244A60793147501D8
:1043900013D59700458D7E0692440249518D410107
:1043A00082806399080A138714001377E70F631755
:1043B000071463900422630D0E1EE3860EFCB30700
:1043C000DE411397570063500722B387CE412E89F1
:1043D00061B7635C100B630E08089307F00F6383EB
:1043E000F406B7070004B3EEFE00ED4763C9171FDC
:1043F00093070002B3871741B397FE00B3D81E019D
:10440000B337F000B3E7F800F297139757006357FC
:10441000070A85041307F00F6384E40CB706007ED7
:1044200013D71700FD16858B758FD98F35B7638D20
:104430000E08FD18B307DE41E38208EE9307F00F84
:10444000E39DF4EA630D030801461305F00FB70777
:10445000400015BF33079840EDE863020E147D1746
:10446000630807189307F00F6319F80E2E89368337
:10447000D1BF638B0E04FD18B307DE01E38708F894
:104480009307F00FE393F4F675BF6395080885046E
:1044900013F7E40F6313071263170510630F0E146D
:1044A000E3830EEEB307DE01139757008144635791
:1044B0000700370700FC7D17F98F854413F7770055
:1044C000E31F07E813D337009307F00FE38CF4F6EC
:1044D00093179300A58313F5F40F4A866DB54A86AA
:1044E0001305F00F814745B5370700FC7D17F98F9D
:1044F00013F77700898CE31407E6E9B73304DE414C
:104500009317540063C3070CE31204E2014601450C
:10451000814795BD33079840ADC49307F00FE3087A
:10452000F8F4B7070004336EFE00ED4763CCE70CE8
:1045300093070002998FB317FE003357EE00B3378D
:10454000F000D98FF697C284C9B59307F00FE30F37
:10455000F8F0B7070004336EFE00ED4763C3E708C9
:1045600093060002998EB316DE00B357EE00333780
:10457000D000D98FB387FE40C2842E8945B38547CA
:1045800061BB630E0E067D17B307DE01C284E30E26
:1045900007E69307F00FE31AF8F8368365B536831C
:1045A000C2842E8915B7E3040EECE38D0EE869BDD5
:1045B000638D0E022E86B687F9B39307F00FE38161
:1045C000F4F2B307DE018583D5BD3384CE412E8955
:1045D000B1BBE31C0EFCE3890EE62E8949BD85477D
:1045E00025B5854741BFE39B07EC0146814761BB89
:1045F000B387CE41C2842E8915B3B68769B336839B
:10460000C284D9B585473DBF3971935775014AD8E2
:1046100056D25ECE931A95001359F50106DE22DCC0
:1046200026DA4ED652D45AD093F7F70F93DA9A007F
:10463000CA8B638207121307F00F6384E7128E0A96
:1046400037070004B3EAEA00138A17F80144014B64
:1046500093D775019394950093F7F70FA58093D99D
:10466000F501FDC71307F00F6387E7028E049387F8
:1046700017F837070004D98C330AFA408146558C65
:1046800017870000130707CD0A043A941C403349EA
:104690003901BA978287130A1AF0F9E88946558CCE
:1046A00017870000130707CF0A043A941C403349C8
:1046B0003901BA97828701491307F00FB707400005
:1046C00013959700F25062549317770125817E0964
:1046D0005D8D33652501D2544259B259225A925AFE
:1046E000025BF24B216182801307F00F8147C9BF43
:1046F000A68ACE8B368B8947630BFB1A8D47E30C5A
:10470000FBFA8547630AFB0A1307FA0713F91B0034
:104710006357E01293F77A0099C793F7FA0091462E
:104720006383D700910A93974A0063D90700B707BC
:1047300000F8FD17B3FAFA0013070A089307E00F11
:10474000E3C4E7FA93976A00A5831377F70F8DBF49
:10475000B9E48546A9B763940A021144014A054B9E
:10476000C5BD63990A002144130AF00F094BCDB56A
:104770008D4631B73144130AF00F0D4BD1BD56852C
:104780002EC6EF0070459307B5FFB39AFA00930762
:10479000A0F8338AA7400144014BB24555BD268598
:1047A000EF0090431307B5FFB307AA00B394E400EA
:1047B000138A67078146E1B513F91B00014781475A
:1047C00001B74166139554007D1693570501698E14
:1047D00063FA9A0AB3D5FA027D1AD686014733885E
:1047E000C502B3F6F602C206558F637B07012A970E
:1047F0009386F5FF6368A70A6376070BF9152A9776
:1048000033070741B356F7023377F702B38AC6027C
:104810009317070163FB5701AA971387F6FF63E11C
:10482000A70863FF5707F916AA97C205B38A57412D
:10483000D58DB33A5001B3EA5501CA8BF1B585461F
:10484000998E11C76D4601478147E34BD6E6130A9F
:10485000EA09339A4A01B3D7DA00B33A4001B3E721
:10486000570113F7770019C713F7F7009146630351
:10487000D700910713975700634807029A07A5834B
:1048800001473DBD93D61A00B3D5F6021397FA013E
:1048900041833388C502B1B7CE8B368B814AA1BD27
:1048A000BA8661B7B685A9BF0547814711BD13F91F
:1048B0001B001307F00F814721B593567501B70709
:1048C0008000FD1713D6750193F6F60F1308F00F4D
:1048D000B3F8A7001357F501ED8F1376F60FFD819E
:1048E000638406031305F00F6304A6020545638382
:1048F000C6008280E39FF8FE0145E30CB7FE054544
:10490000EDFA3335100182800545E38D08FC828085
:104910000545E9DF828093567501B7078000FD17D2
:1049200013D6750193F6F60F1308F00FB3F8A7002E
:104930001357F501ED8F1376F60FFD8163810603A2
:10494000630C06018DE211E2B1C3638E08026305B8
:10495000B70405451DE78280F5D779558280E39E2F
:1049600008FE6309D60211E2EDD7E314B7FEE34275
:10497000D6FE63C7C600E3EE17FD0145E3FDF8FC74
:1049800001E77D558280F5DD054582800145E39292
:1049900008FC8280F9DBD1B78146E1BF93567501EF
:1049A000B7078000FD1713D6750193F6F60F1308AD
:1049B000F00FB3F8A7001357F501ED8F1376F60F3C
:1049C000FD81638706036309060185EA11EA89EB25
:1049D0000145639B080082800945F5FFE5DA31A8AF
:1049E000638C08026300B704054575D77D55828046
:1049F0000945639808026304D60211E2F5D7E3156E
:104A0000B7FEE343D6FE63C7C600E3EF17FD0145DB
:104A1000E3F3F8FC19E3D9BFF1D905458280E5D36A
:104A2000828082808146C5B7797122D41354750182
:104A30004ECE52CC9319950006D626D24AD056CAED
:104A40005AC81374F40F93D99900135AF50169C425
:104A50009307F00F6308F40E9397390037070004AB
:104A6000B3E9E700130414F88144014B13D775012F
:104A7000939A95001377F70F93DA9A0013D9F501FB
:104A800045CF9307F00F630CF7028E0A130717F850
:104A9000B7070004B3EAFA003A94014633452A0105
:104AA000BD47AA869305140063E29710178700009C
:104AB000130747928A04BA949C40BA9782871304DA
:104AC000F40F63980A0C93E424000946C1BF014522
:104AD0001307F00FB7074000B2502254A6075E0735
:104AE000A5837E05D98F92540259F249624AD24A6F
:104AF000424B5D8D45618280CA86D689328B89475B
:104B00006301FB0A8D47E304FBFC8547368563128E
:104B1000FB1A01478147C9B7639E090413D7750182
:104B2000939A95001377F70F91440144054B93DA5C
:104B30009A0013D9F50131F7639D0A0093E414003C
:104B40000546A9BF63930902A1441304F00F094B62
:104B500031BF5685EF0050089307B5FF098CB39A13
:104B6000FA001304A4F8014615BFB1441304F00F72
:104B70000D4BEDBD4E852EC6EF0010069307B5FF19
:104B80001304A0F8B399F900098C8144014BB24594
:104B9000F1BD93E434000D4611B78947D286E31383
:104BA000FBF636851307F00F81473DB74163930647
:104BB000F3FF13D6090193D80A01B3F7D900B3FA6A
:104BC000DA0033885703B389F80213570801B30A90
:104BD0005603D6994E9733061603637357011A96F8
:104BE000C167FD17B376F7003378F800C206C296A6
:104BF0009399660093570701B3393001E982B29760
:104C00009A07B3E6D900B3E9D7009397490063D96F
:104C1000070013D7190093F71900B369F7002E8422
:104C20001307F4076350E00493F7790099C793F7EB
:104C3000F90091466383D70091099397490063D99E
:104C40000700B70700F8FD17B3F9F90013070408C8
:104C50009307E00F63CBE70493976900A58313776D
:104C6000F70F9DBD8547B386E74011C76D460147E5
:104C70008147E343D6E61307E4093397E900333766
:104C8000E000B3D7D900D98F13F7770019C713F70E
:104C9000F70091466303D700910713975700634CC1
:104CA00007009A07A583014705BD1307F00F814749
:104CB00025B52E84B5B70547814739BD3707800034
:104CC00041117D179356750113D87501B377A7006D
:104CD00093F6F60F935EF5013376B70026C24AC00D
:104CE0001378F80F06C622C41303F00F3E8E3689E0
:104CF000F684139F3700FD8113153600B3880641F3
:104D00006302681093C51500638CBE106354100DC8
:104D1000631008106304051EFD18B307AF406386D7
:104D200008029307F00F6388F616ED4763C717294B
:104D300013070002330717413317E500B357150176
:104D40003337E000D98FB307FF4013975700635103
:104D5000071A370400047D147D8C2285B52D6D154E
:104D6000B317A400634E251B33052541130415001A
:104D700013070002018F3397E7003337E000B3D702
:104D80008700D98F014913F7770019C713F7F70088
:104D900091466303D700910713975700635E07148A
:104DA000930619001307F00F93FE14006386E616AE
:104DB0009A07A58393F6F60FA607B240224413D5AF
:104DC0009700DE069397FE01558D924402495D8D52
:104DD000410182806392080A138716001377E70F58
:104DE000631B07146394062263020F2071D5B30777
:104DF000AF401397570063550722B307E5410149B8
:104E0000AE8451B7E30005F0638ABE0AE35410FD97
:104E10009307F00F6381F608B70700045D8D31B783
:104E2000635E1009630108089307F00F6385F606B7
:104E3000B70700045D8DED4763C0171F130700021D
:104E4000330717413317E500B35715013337E00037
:104E5000D98FFA9713975700635C07080509130762
:104E6000F00F630BE90AB706007E13D71700FD1693
:104E7000858B758FD98F01BF3307D8406395061096
:104E8000630D0F147D176303071A9307F00F631464
:104E9000F810AE84328E630F0E06814E9306F00F2B
:104EA000B707400011BF39C9FD18B307AF00E3834E
:104EB00008FA9307F00FE390F6F8F1BF639908083A
:104EC000138916001377E90F63160712639B061008
:104ED00063030F16E30205EEB307AF001397570005
:104EE000014963570700370700FC7D17F98F054913
:104EF00013F77700E31C07E813DE37009307F00F82
:104F0000E30BF9F893179E00A5839376F90F93FEB0
:104F100014005DB593FE14009306F00F814769BD40
:104F2000370700FC7D17F98F13F777003309A94085
:104F3000E31E07E4D1B73304AF409317540063C3B3
:104F4000070CE31C04E0814E81468147B5B5330769
:104F5000D840B5C69307F00FE30EF8F2B707000488
:104F6000336FFF00ED4763CDE70C93070002998F85
:104F7000B317FF003357EF00B337F0005D8FB3076F
:104F8000A7004289C1BD9307F00FE304F8F0B7070B
:104F90000004336FFF00ED4763C2E7089307000288
:104FA000998FB317FF003357EF00B337F000D98F55
:104FB000B307F5404289AE8449BB854769B3630EA8
:104FC0000F067D17B307AF004289E30507E8930793
:104FD000F00FE319F8F8328E7DBD328E4289AE842F
:104FE00031BFE3090FEAE30805EA45BD0DCDAE8EFA
:104FF000B287D9B39307F00FE300F9F2B307AF001C
:105000008583FDB53304E541AE8481BBE31D0FFC10
:10501000E30505E8AE84BDBD854725BD854749BF8D
:105020000149E39707EC814E814779B3B307E54126
:105030004289AE8419BBB28741B3328E42897DBDAD
:10504000054735BF37068000135775019307F6FFF4
:105050001377F70F9305E007B3F6A7009357F50111
:1050600063FCE5009305D00963FAE500370500808D
:105070001345F5FF3E9582800145828093055009D6
:10508000D18E63CDE500130660093307E64033D7C0
:10509000E6003305E040F5F33A8582801307A7F672
:1050A0003397E600FDB71357750137068000930765
:1050B000F6FF1377F70F9305E007B3F6A7009357B2
:1050C000F501014563F4E50099C38280828093076E
:1050D000E0097D55E3EBE7FE93055009B3E7C60011
:1050E00063D7E5001307A7F63395E7008280130521
:1050F00060093307E54033D5E7008280411106C6D9
:1051000022C426C20DCD9357F54133C4A7001D8C90
:10511000AA842285D1249307E0093387A740930707
:105120006009FD8063CCE702A1469377F70F63D552
:10513000A60061153314A4002604258021A0814413
:1051400081470144260413559400B2402244DE07EF
:10515000FE045D8D458D9244410182809307900944
:1051600063DDE7009307B5019546B317F400898E18
:105170003354D400B337F0005D8C954763D6A70055
:105180009307B5FF3314F400B70600FCFD169377C0
:1051900074003376D40085C39377F4009145638C13
:1051A000B70011069317560063D707009307F0095D
:1051B000758E3387A7401314660025809377F70F09
:1051C00051B7135775011377F70F41119307170064
:1051D00022C426C21314950006C693F7E70F258054
:1051E0009354F50185C793573400130707387604A5
:1051F000B2075207B1831395F401D98FC98FB2401A
:10520000228522449244BE854101828005EB39C447
:105210002285D922A94763C6A7042D47098F930782
:1052200055013357E4003314F4009317C7001307F4
:105230009038098FB1831377F77F5DBF01CC135787
:105240003400B7070800D98FB2077604B18313077B
:10525000F07F79BF1307F07F814759BF014781472E
:1052600041BF130755FF3317E40001447DBF93D6B8
:1052700045019397C50093F6F67FB1831386160018
:105280008E071357D5011376E67FFD815D8F931846
:10529000350035CE138806C89307E00F63DD07019C
:1052A0008147139597009306F00FDE062581FE05D2
:1052B000558D4D8D82806355000B931765000E0749
:1052C000B337F000D98F93D8D801B3E7170113F79C
:1052D00077006301071013F7F70091466303D700C7
:1052E0009107370700047D8F75C713071800130651
:1052F000F00F9376F70FE305C7FA9A07A583139586
:105300009700DE062581FE05558D4D8D8280B367A1
:10531000170199EE85CF95479A07A58313959700B6
:1053200093F6F60FDE062581FE05558D4D8D8280A4
:10533000A5DBB7074000139597009306F00FDE0634
:1053400081452581FE05558D4D8D828081471395C0
:1053500097008146DE062581FE05558D4D8D8280A4
:10536000A5576348F804F94737068000B38707411B
:105370007D45598E6351F50479573307074113056D
:1053800000023357E6006388A700938626CAB31647
:10539000D600B3E8D800B3371001D98F13F77700E0
:1053A000014815FB139757008546E34807F48146EB
:1053B000A5B781468DB7938626C83397D800333773
:1053C000E000B316D600B3D8F800B367D700B3E750
:1053D000F800E9B7C28689B7C167637CF502930715
:1053E000F00F1307000263EBA70097770000938785
:1053F0006702AA9788233305A74082802181977787
:10540000000093872701AA97882361473305A740A7
:105410008280B7070001636DF50061819777000016
:10542000938747FFAA97882321473305A7408280A7
:105430004181977700009387E7FDAA97882341472A
:105440003305A740828081456F00107A01476314BD
:10545000E60001458280B307E5000507B386E50055
:105460009C2383C6F6FFE384D7FE3385D740828032
:10547000B3C7A5008D8B3307C50081E78D4763ED6A
:10548000C700AA87637EE508942185078505A38F59
:10549000D7FEE3EBE7FE828093763500AA8789CAC0
:1054A000942185078505A38FD7FE93F63700C5BFE6
:1054B0009376C7FF138606FE63F0C70683A3050035
:1054C00083A2450083AF850003AFC50083AE05010D
:1054D00003AE450103A3850183A8C5019385450259
:1054E00023A0770003A8C5FF23A2570023A4F70138
:1054F00023A6E70123A8D70123AAC70123AC67008D
:1055000023AE17019387470223AE07FF75B790417B
:105510009107910523AEC7FEE3EBD7FEE3E6E7F67E
:10552000828039713EDA2ED232D436D63AD842DC75
:1055300046DE9387818122CC804326CA06CEAA8488
:1055400011C41C4C81E72285EF10802C0C445410B0
:105550002686228536C6EF209037F2406244D24438
:105560002161828001119387818122CC804306CE04
:10557000AA8501C81C4C91E72AC62285EF10402954
:10558000B245104422856244F24005616F30A01795
:10559000011126CA4AC806CE22CC4EC652C4AA84DD
:1055A0002E8909C51C4D99E3EF1080269C4C804440
:1055B00081E72685EF10C025977700009387870243
:1055C000631CF402C0405E24A18BB9C71C48A9C764
:1055D000FD59294A1C4483450900FD17A1ED1CC44F
:1055E00063D007082286A9452685EF00B061FD57E4
:1055F0006309F50229453DA097770000938787004E
:105600006314F4008044C1B797770000938787FB49
:10561000E31BF4FAC04445BFA2852685EF00506A1B
:1056200045D97D55F2406244D2444249B249224AAA
:10563000056182801CC4050963D70700184C63CA42
:10564000E700638845011C401387170018C08CA32E
:1056500051B722862685EF00F05AE31D35F7D1B702
:105660001C401387170018C0294798A361B7938778
:105670008181AA8588436FF0BFF135713ECBB707B2
:10568000008093C7F7FF3ECE3EC8C177938787203F
:1056900032C536C73AC942CD46CF3ECA93878181CB
:1056A0002AC42ACC884334012E862C0086DE36C2DA
:1056B000EF20A074A24723800700F6500D6182807E
:1056C00093F5F50F1C2191C76393B7008280050500
:1056D000D5BF91C101458280AA879821850785059C
:1056E000A38FE7FE7DFB8280AA87850703C7F7FFAC
:1056F0006DFF3385A7407D15828018219C2101E72D
:1057000091C301458280814739A01C3113071500E0
:10571000EDDB81473A853387F500182365D7B3065B
:10572000F5009422E393E6FE85072A87E5B7011189
:1057300022CC2A872E843A85A28532C606CEEF2057
:10574000201732462A88AE8805C651801374F47F2C
:105750009307B006818F635DF000D2073707F03FF3
:1057600001483E974286BA86EF40A0202A88AE883C
:10577000F24062444285C6850561828035714AC91E
:105780002A89368532D436C606CF22CD26CB4EC7DF
:10579000EAD8EED62E8D52C556C35AC1DEDEE2DC03
:1057A000E6DA82C8EF10D011AA8D08418144014485
:1057B000EFF09FF3B246AA89EAC635469305B002D8
:1057C0001305D00213080002A548B6479823636B5F
:1057D000E608637F170955C702C8364A93070003D6
:1057E000814A03470A00631BF71283471A00130715
:1057F00080056388E700130680071307000363969C
:10580000C710C24736889808D408177600001306D8
:1058100066D6EC004A85EF10602293797500AA8A5B
:105820006388090099476397F906050AD2C602C83A
:10583000A25781C7B64722571CC3C247B9C7B7058D
:105840000080A18DFA406A4426854A49DA44BA4963
:105850002A4A9A4A0A4BF65B665CD65C465DB65DA0
:105860000D6182806309B7006303A702E31607F79F
:105870008507BEC699BF02C813871700BAC69C33F6
:10588000A9FFA257EAC602C8D5F7A28565BF05479A
:105890003AC8DDB7464611CA93055003A808EF2061
:1058A0004025C6454A85EF10B01CFD19914763EEAF
:1058B0003701177700001307E7C58A09BA9983A74C
:1058C0000900BA978287E644764493FA8A00E38116
:1058D0000AF6B70700805D8CA1BFF6453704F0FFDC
:1058E0007D14B3F785005644E644130434439315FE
:1058F000440133E4B700D1BF3704F07FF9B7B705EF
:10590000008013C4F5FFFD54C9B7B647938617004E
:10591000B6C69C33E38BE7FE81DF854AB64C014A6D
:10592000814B014CA546A145A9473645034B0500CF
:1059300013070BFD1376F70F63FDC60483A50D0057
:105940004E86EF2050723DC1DA87E28D8146014BD1
:105950000145130750066387E70013075004814988
:105960006395E71663960D00B3E7560199DB814D09
:10597000364D1307B00293071D00BEC683471D00B6
:10598000638FE70C1307D00201486390E70E0548C8
:10599000C1A863C98501B38BFB02BA9B0505050C41
:1059A000AAC661B7330AFA023A9ACDBF3645814694
:1059B0004E95AAC61C21630B0C06014BE28D138782
:1059C00007FD25466375E602054561B7B6478506BE
:1059D00013861700B2C69C33E38AE7FE1387F7FCF1
:1059E0002146E366E61EB64C368B814D8146938791
:1059F00007FD1387160085C73A9B3385B6016E876E
:105A00002148C14829466316A702850DB69DA146C7
:105A100063CEE6022947B38BEB020147BE9BB64734
:105A200093861700B6C69C33BA8651BF130700038E
:105A300065B7930517006346E800B38BCB022E874A
:105A4000D9B7E3CEB8FE330ACA02D5BFC146014773
:105A5000E3C7B6FDA946330ADA023E9AC9B7014840
:105A600093072D00BEC683472D00138707FD2546EB
:105A70006365E60C130700036385E70A1387F7FCE9
:105A8000214681496363E604B648138707FD254331
:105A9000294EB64713861700B2C69C33938507FD7F
:105AA00093F5F50F6375B30895693306164193892D
:105AB000F9E1A148CE8563C6C800BA8963D3E50081
:105AC000AE8963040800B309304163960D0CB3E658
:105AD000DA00E39F06D4E31605DA1307E0046389CE
